{
  "transactions": [
    {
      "hash": "0x563ff857ecba1acd5055d2354211ce91952e5653f061366a2aaa4e83cb8cf5af",
      "transactionType": "CALL",
      "contractName": null,
      "contractAddress": "0x84b9B910527Ad5C03A9Ca831909E21e236EA7b06",
      "function": "transferAndCall(address,uint256,bytes)",
      "arguments": [
        "0x6A2AAd07396B36Fe02a22b33cf443582f682c82f",
        "3000000000000000000",
        "0x0000000000000000000000000000000000000000000000000000000000000d3a"
      ],
      "transaction": {
        "type": "0x00",
        "from": "0x7bb8be3d9015682d7ac0ea377dc0c92b0ba152ef",
        "to": "0x84b9b910527ad5c03a9ca831909e21e236ea7b06",
        "gas": "0x13fd4",
        "value": "0x0",
        "data": "0x4000aea00000000000000000000000006a2aad07396b36fe02a22b33cf443582f682c82f00000000000000000000000000000000000000000000000029a2241af62c0000000000000000000000000000000000000000000000000000000000000000006000000000000000000000000000000000000000000000000000000000000000200000000000000000000000000000000000000000000000000000000000000d3a",
        "nonce": "0x23"
      },
      "additionalContracts": [],
      "isFixedGasLimit": false
    }
  ],
  "receipts": [
    {
      "transactionHash": "0x563ff857ecba1acd5055d2354211ce91952e5653f061366a2aaa4e83cb8cf5af",
      "transactionIndex": "0x4",
      "blockHash": "0xf595e6d29e114f07a28277480a26a9c48f04be22d753f850f401f72a2b6a1566",
      "blockNumber": "0x23ffe1d",
      "from": "0x7Bb8be3D9015682d7AC0Ea377dC0c92B0ba152eF",
      "to": "0x84b9B910527Ad5C03A9Ca831909E21e236EA7b06",
      "cumulativeGasUsed": "0x4cfad",
      "gasUsed": "0xe78e",
      "contractAddress": null,
      "logs": [
        {
          "address": "0x84b9B910527Ad5C03A9Ca831909E21e236EA7b06",
          "topics": [
            "0xddf252ad1be2c89b69c2b068fc378daa952ba7f163c4a11628f55a4df523b3ef",
            "0x0000000000000000000000007bb8be3d9015682d7ac0ea377dc0c92b0ba152ef",
            "0x0000000000000000000000006a2aad07396b36fe02a22b33cf443582f682c82f"
          ],
          "data": "0x00000000000000000000000000000000000000000000000029a2241af62c0000",
          "blockHash": "0xf595e6d29e114f07a28277480a26a9c48f04be22d753f850f401f72a2b6a1566",
          "blockNumber": "0x23ffe1d",
          "transactionHash": "0x563ff857ecba1acd5055d2354211ce91952e5653f061366a2aaa4e83cb8cf5af",
          "transactionIndex": "0x4",
          "logIndex": "0x6",
          "removed": false
        },
        {
          "address": "0x84b9B910527Ad5C03A9Ca831909E21e236EA7b06",
          "topics": [
            "0xe19260aff97b920c7df27010903aeb9c8d2be5d310a2c67824cf3f15396e4c16",
            "0x0000000000000000000000007bb8be3d9015682d7ac0ea377dc0c92b0ba152ef",
            "0x0000000000000000000000006a2aad07396b36fe02a22b33cf443582f682c82f"
          ],
          "data": "0x00000000000000000000000000000000000000000000000029a2241af62c0000000000000000000000000000000000000000000000000000000000000000004000000000000000000000000000000000000000000000000000000000000000200000000000000000000000000000000000000000000000000000000000000d3a",
          "blockHash": "0xf595e6d29e114f07a28277480a26a9c48f04be22d753f850f401f72a2b6a1566",
          "blockNumber": "0x23ffe1d",
          "transactionHash": "0x563ff857ecba1acd5055d2354211ce91952e5653f061366a2aaa4e83cb8cf5af",
          "transactionIndex": "0x4",
          "logIndex": "0x7",
          "removed": false
        },
        {
          "address": "0x6A2AAd07396B36Fe02a22b33cf443582f682c82f",
          "topics": [
            "0xd39ec07f4e209f627a4c427971473820dc129761ba28de8906bd56f57101d4f8",
            "0x0000000000000000000000000000000000000000000000000000000000000d3a"
          ],
          "data": "0x0000000000000000000000000000000000000000000000004563918244f400000000000000000000000000000000000000000000000000006f05b59d3b200000",
          "blockHash": "0xf595e6d29e114f07a28277480a26a9c48f04be22d753f850f401f72a2b6a1566",
          "blockNumber": "0x23ffe1d",
          "transactionHash": "0x563ff857ecba1acd5055d2354211ce91952e5653f061366a2aaa4e83cb8cf5af",
          "transactionIndex": "0x4",
          "logIndex": "0x8",
          "removed": false
        }
      ],
      "status": "0x1",
      "logsBloom": "0x00000000000008000000000000000200000000000000000200000000020000000800000000000000000000000000000000000000000000000000000000000040000000000000000000000008000000000000000000000000200020000000000000000000000000000000000008000004000000000000000000000010000008000000000000000000000000000000000010000020010000000000000000000000000000000000000000000000000000000000000000000000000400000000000000000042000000000000000000000000000000000040000000080000000000000000000000000000000000000000100000002000000000080000000000000000",
      "type": "0x0",
      "effectiveGasPrice": "0x12a05f200"
    }
  ],
  "libraries": [],
  "pending": [],
  "returns": {},
  "timestamp": 1707955186,
  "chain": 97,
  "multi": false,
  "commit": "b925c65"
}